{
  "contractName": "kittyBase",
  "abi": [
    {
      "constant": false,
      "inputs": [
        {
          "name": "_newOwner",
          "type": "address"
        }
      ],
      "name": "setOwner",
      "outputs": [],
      "payable": false,
      "stateMutability": "nonpayable",
      "type": "function"
    },
    {
      "constant": true,
      "inputs": [
        {
          "name": "",
          "type": "uint256"
        }
      ],
      "name": "kittyToOwner",
      "outputs": [
        {
          "name": "",
          "type": "address"
        }
      ],
      "payable": false,
      "stateMutability": "view",
      "type": "function"
    },
    {
      "constant": true,
      "inputs": [
        {
          "name": "",
          "type": "uint256"
        }
      ],
      "name": "kitties",
      "outputs": [
        {
          "name": "genes",
          "type": "string"
        },
        {
          "name": "cooldown",
          "type": "uint64"
        },
        {
          "name": "birthTime",
          "type": "uint64"
        },
        {
          "name": "matronId",
          "type": "uint32"
        },
        {
          "name": "sireId",
          "type": "uint32"
        },
        {
          "name": "generation",
          "type": "uint64"
        }
      ],
      "payable": false,
      "stateMutability": "view",
      "type": "function"
    },
    {
      "constant": true,
      "inputs": [],
      "name": "owner",
      "outputs": [
        {
          "name": "",
          "type": "address"
        }
      ],
      "payable": false,
      "stateMutability": "view",
      "type": "function"
    },
    {
      "anonymous": false,
      "inputs": [
        {
          "indexed": false,
          "name": "owner",
          "type": "address"
        },
        {
          "indexed": false,
          "name": "kittyId",
          "type": "uint256"
        },
        {
          "indexed": false,
          "name": "matronId",
          "type": "uint256"
        },
        {
          "indexed": false,
          "name": "sireId",
          "type": "uint256"
        },
        {
          "indexed": false,
          "name": "genes",
          "type": "string"
        }
      ],
      "name": "Birth",
      "type": "event"
    },
    {
      "anonymous": false,
      "inputs": [
        {
          "indexed": false,
          "name": "from",
          "type": "address"
        },
        {
          "indexed": false,
          "name": "to",
          "type": "address"
        },
        {
          "indexed": false,
          "name": "tokenId",
          "type": "uint256"
        }
      ],
      "name": "Transfer",
      "type": "event"
    },
    {
      "constant": false,
      "inputs": [
        {
          "name": "_to",
          "type": "address"
        },
        {
          "name": "_genes",
          "type": "string"
        },
        {
          "name": "_matronId",
          "type": "uint256"
        },
        {
          "name": "_sireId",
          "type": "uint256"
        },
        {
          "name": "_generation",
          "type": "uint32"
        }
      ],
      "name": "createKitty",
      "outputs": [
        {
          "name": "",
          "type": "uint256"
        }
      ],
      "payable": false,
      "stateMutability": "nonpayable",
      "type": "function"
    },
    {
      "constant": true,
      "inputs": [],
      "name": "getKitties",
      "outputs": [
        {
          "name": "",
          "type": "uint256[]"
        }
      ],
      "payable": false,
      "stateMutability": "view",
      "type": "function"
    }
  ],
  "bytecode": "0x6080604052607860025534801561001557600080fd5b50610e69806100256000396000f300608060405260043610610078576000357c0100000000000000000000000000000000000000000000000000000000900463ffffffff16806313af40351461007d57806387c74868146100c05780638cc51eda1461012d5780638da5cb5b1461024a57806398bf048c146102a1578063fb2dfa4514610362575b600080fd5b34801561008957600080fd5b506100be600480360381019080803573ffffffffffffffffffffffffffffffffffffffff1690602001909291905050506103ce565b005b3480156100cc57600080fd5b506100eb600480360381019080803590602001909291905050506104a8565b604051808273ffffffffffffffffffffffffffffffffffffffff1673ffffffffffffffffffffffffffffffffffffffff16815260200191505060405180910390f35b34801561013957600080fd5b50610158600480360381019080803590602001909291905050506104db565b60405180806020018767ffffffffffffffff1667ffffffffffffffff1681526020018667ffffffffffffffff1667ffffffffffffffff1681526020018563ffffffff1663ffffffff1681526020018463ffffffff1663ffffffff1681526020018367ffffffffffffffff1667ffffffffffffffff168152602001828103825288818151815260200191508051906020019080838360005b8381101561020a5780820151818401526020810190506101ef565b50505050905090810190601f1680156102375780820380516001836020036101000a031916815260200191505b5097505050505050505060405180910390f35b34801561025657600080fd5b5061025f61061a565b604051808273ffffffffffffffffffffffffffffffffffffffff1673ffffffffffffffffffffffffffffffffffffffff16815260200191505060405180910390f35b3480156102ad57600080fd5b5061034c600480360381019080803573ffffffffffffffffffffffffffffffffffffffff169060200190929190803590602001908201803590602001908080601f01602080910402602001604051908101604052809392919081815260200183838082843782019150505050505091929192908035906020019092919080359060200190929190803563ffffffff16906020019092919050505061063f565b6040518082815260200191505060405180910390f35b34801561036e57600080fd5b50610377610c55565b6040518080602001828103825283818151815260200191508051906020019060200280838360005b838110156103ba57808201518184015260208101905061039f565b505050509050019250505060405180910390f35b6000809054906101000a900473ffffffffffffffffffffffffffffffffffffffff1673ffffffffffffffffffffffffffffffffffffffff163373ffffffffffffffffffffffffffffffffffffffff1614151561042957600080fd5b600073ffffffffffffffffffffffffffffffffffffffff168173ffffffffffffffffffffffffffffffffffffffff161415151561046557600080fd5b806000806101000a81548173ffffffffffffffffffffffffffffffffffffffff021916908373ffffffffffffffffffffffffffffffffffffffff16021790555050565b60036020528060005260406000206000915054906101000a900473ffffffffffffffffffffffffffffffffffffffff1681565b6001818154811015156104ea57fe5b9060005260206000209060020201600091509050806000018054600181600116156101000203166002900480601f0160208091040260200160405190810160405280929190818152602001828054600181600116156101000203166002900480156105965780601f1061056b57610100808354040283529160200191610596565b820191906000526020600020905b81548152906001019060200180831161057957829003601f168201915b5050505050908060010160009054906101000a900467ffffffffffffffff16908060010160089054906101000a900467ffffffffffffffff16908060010160109054906101000a900463ffffffff16908060010160149054906101000a900463ffffffff16908060010160189054906101000a900467ffffffffffffffff16905086565b6000809054906101000a900473ffffffffffffffffffffffffffffffffffffffff1681565b6000610649610d37565b6000808463ffffffff1614156108915760c060405190810160405280888152602001600254420167ffffffffffffffff1681526020014267ffffffffffffffff168152602001600063ffffffff168152602001600063ffffffff1681526020018563ffffffff1667ffffffffffffffff1681525091506001808390806001815401808255809150509060018203906000526020600020906002020160009091929091909150600082015181600001908051906020019061070a929190610d98565b5060208201518160010160006101000a81548167ffffffffffffffff021916908367ffffffffffffffff16021790555060408201518160010160086101000a81548167ffffffffffffffff021916908367ffffffffffffffff16021790555060608201518160010160106101000a81548163ffffffff021916908363ffffffff16021790555060808201518160010160146101000a81548163ffffffff021916908363ffffffff16021790555060a08201518160010160186101000a81548167ffffffffffffffff021916908367ffffffffffffffff1602179055505050039050876003600083815260200190815260200160002060006101000a81548173ffffffffffffffffffffffffffffffffffffffff021916908373ffffffffffffffffffffffffffffffffffffffff160217905550600460008973ffffffffffffffffffffffffffffffffffffffff1673ffffffffffffffffffffffffffffffffffffffff16815260200190815260200160002060008154809291906001019190505550610ad5565b60c060405190810160405280888152602001600254420167ffffffffffffffff1681526020014267ffffffffffffffff1681526020018763ffffffff1681526020018663ffffffff1681526020018563ffffffff1667ffffffffffffffff16815250915060018083908060018154018082558091505090600182039060005260206000209060020201600090919290919091506000820151816000019080519060200190610940929190610d98565b5060208201518160010160006101000a81548167ffffffffffffffff021916908367ffffffffffffffff16021790555060408201518160010160086101000a81548167ffffffffffffffff021916908367ffffffffffffffff16021790555060608201518160010160106101000a81548163ffffffff021916908363ffffffff16021790555060808201518160010160146101000a81548163ffffffff021916908363ffffffff16021790555060a08201518160010160186101000a81548167ffffffffffffffff021916908367ffffffffffffffff1602179055505050039050876003600083815260200190815260200160002060006101000a81548173ffffffffffffffffffffffffffffffffffffffff021916908373ffffffffffffffffffffffffffffffffffffffff160217905550600460008973ffffffffffffffffffffffffffffffffffffffff1673ffffffffffffffffffffffffffffffffffffffff16815260200190815260200160002060008154809291906001019190505550610acb86610ce3565b610ad485610ce3565b5b7f4e6455c91928c274385a73f9a414dadc99be42d2c970d057edbebcf5aa131222888288888b604051808673ffffffffffffffffffffffffffffffffffffffff1673ffffffffffffffffffffffffffffffffffffffff16815260200185815260200184815260200183815260200180602001828103825283818151815260200191508051906020019080838360005b83811015610b7f578082015181840152602081019050610b64565b50505050905090810190601f168015610bac5780820380516001836020036101000a031916815260200191505b50965050505050505060405180910390a17fddf252ad1be2c89b69c2b068fc378daa952ba7f163c4a11628f55a4df523b3ef60008983604051808473ffffffffffffffffffffffffffffffffffffffff1681526020018373ffffffffffffffffffffffffffffffffffffffff1673ffffffffffffffffffffffffffffffffffffffff168152602001828152602001935050505060405180910390a1809250505095945050505050565b606080600080600180549050604051908082528060200260200182016040528015610c8f5781602001602082028038833980820191505090505b50925060009150600090505b600180549050811015610cda57808383815181101515610cb757fe5b906020019060200201818152505081806001019250508080600101915050610c9b565b82935050505090565b6000600182815481101515610cf457fe5b9060005260206000209060020201905060025442018160010160006101000a81548167ffffffffffffffff021916908367ffffffffffffffff1602179055505050565b60c06040519081016040528060608152602001600067ffffffffffffffff168152602001600067ffffffffffffffff168152602001600063ffffffff168152602001600063ffffffff168152602001600067ffffffffffffffff1681525090565b828054600181600116156101000203166002900490600052602060002090601f016020900481019282601f10610dd957805160ff1916838001178555610e07565b82800160010185558215610e07579182015b82811115610e06578251825591602001919060010190610deb565b5b509050610e149190610e18565b5090565b610e3a91905b80821115610e36576000816000905550600101610e1e565b5090565b905600a165627a7a72305820fb743ac66ea4e206e0d5cdc5069f7a51975c79ee0e4ae17aa99a2a8a29aced600029",
  "source": "pragma solidity ^0.4.19;\n\nimport \"./kittyControl.sol\";\ncontract kittyBase is kittyControl{\n    /// @dev 小猫出生时的事件，包括giveBirth和0代猫的创建\n    event Birth(address owner, uint256 kittyId, uint256 matronId, uint256 sireId, string genes);\n\n    /// @dev ERC721定义的转让事件，当kitty的主人变换时调用（包括出生）\n    event Transfer(address from, address to, uint256 tokenId);\n\n    //猫的数据结构\n    struct Kitty{\n        string genes; //基因\n        uint64 cooldown; //可生育的冷却时间\n        uint64 birthTime; //出生时间\n        uint32 matronId; // 双亲ID\n        uint32 sireId;\n        uint64 generation; //代数\n    }\n    //存储所有猫的数组\n    Kitty[] public kitties;\n    uint cooldownTime = 2 minutes;\n\n    mapping(uint256 => address) public kittyToOwner;  //猫ID对应主人地址\n    mapping(address => uint256) ownerTokenCount;   //主人对应猫的数\n    mapping(uint256 => address) kittyApproves;    //approval\n\n    function _transfer(address _from, address _to, uint256 _tokenId) internal {\n        ownerTokenCount[_to]++;\n        // 设置主人\n        kittyToOwner[_tokenId] = _to;\n        // 需要规避原来主人是0x0的情况\n        if (_from != address(0)) {\n            ownerTokenCount[_from]--;\n        }\n        // 发出主人转换事件\n        emit Transfer(_from, _to, _tokenId);\n    }\n    function _setCooldownTime(uint256 _tokenId) internal  {\n        Kitty storage _kitty = kitties[_tokenId];\n        _kitty.cooldown = uint64(now + cooldownTime);\n    }\n\n\n    //创建猫的函数\n    function createKitty(\n        address _to,\n        string _genes,\n        uint256 _matronId,\n        uint256 _sireId,\n        uint32 _generation\n    ) public returns(uint256) {\n        Kitty memory _kitty;\n        uint256 _tokenId;\n        if (_generation == 0) {\n            _kitty = Kitty({\n                genes:_genes,\n                cooldown:uint64(now + cooldownTime),\n                birthTime:uint64(now),\n                matronId:uint32(0),\n                sireId:uint32(0),\n                generation:uint64(_generation)\n            });\n            _tokenId = kitties.push(_kitty) - 1;\n            kittyToOwner[_tokenId] = _to;\n            ownerTokenCount[_to]++;\n        } else {\n         _kitty = Kitty({\n                    genes:_genes,\n                    cooldown:uint64(now + cooldownTime),\n                    birthTime:uint64(now),\n                    matronId:uint32(_matronId),\n                    sireId:uint32(_sireId),\n                    generation:uint64(_generation)\n            });\n\n            _tokenId = kitties.push(_kitty) - 1;\n            kittyToOwner[_tokenId] = _to;\n            ownerTokenCount[_to]++;\n\n            _setCooldownTime(_matronId);\n            _setCooldownTime(_sireId);\n        }\n        //birth事件事件\n        emit Birth(_to, _tokenId, _matronId, _sireId, _genes);\n\n\n        //设置\n        emit Transfer(0, _to, _tokenId);\n        return _tokenId;\n    }\n\n    //获取所有猫咪\n    function getKitties() public view returns(uint[]) {\n        uint[] memory _result = new uint[](kitties.length);\n        uint counter = 0;\n\n        for (uint i = 0; i < kitties.length; i++ ) {\n            _result[counter] = i;\n            counter++;\n        }\n        return _result;\n    }\n\n}\n\n",
  "sourcePath": "/Users/pdw/Workplace/cryptokitty/contracts/kittyBase.sol",
  "compiler": {
    "name": "solc",
    "version": "0.4.24+commit.e67f0147.Emscripten.clang"
  },
  "schemaVersion": "2.0.0",
  "updatedAt": "2018-06-24T15:51:35.266Z"
}